{
  "contractName": "FreePowerball",
  "abi": [
    {
      "inputs": [],
      "stateMutability": "nonpayable",
      "type": "constructor"
    },
    {
      "anonymous": false,
      "inputs": [
        {
          "indexed": false,
          "internalType": "uint256",
          "name": "amount",
          "type": "uint256"
        }
      ],
      "name": "AirDrop",
      "type": "event"
    },
    {
      "anonymous": false,
      "inputs": [
        {
          "indexed": true,
          "internalType": "address",
          "name": "owner",
          "type": "address"
        },
        {
          "indexed": true,
          "internalType": "address",
          "name": "spender",
          "type": "address"
        },
        {
          "indexed": false,
          "internalType": "uint256",
          "name": "value",
          "type": "uint256"
        }
      ],
      "name": "Approval",
      "type": "event"
    },
    {
      "anonymous": false,
      "inputs": [],
      "name": "LaunchedAndSpecialTransferDisabled",
      "type": "event"
    },
    {
      "anonymous": false,
      "inputs": [
        {
          "indexed": false,
          "internalType": "address",
          "name": "winner",
          "type": "address"
        },
        {
          "indexed": false,
          "internalType": "uint256",
          "name": "reward",
          "type": "uint256"
        }
      ],
      "name": "LotterRedeemed",
      "type": "event"
    },
    {
      "anonymous": false,
      "inputs": [
        {
          "indexed": false,
          "internalType": "address",
          "name": "winner",
          "type": "address"
        }
      ],
      "name": "LotterWinner",
      "type": "event"
    },
    {
      "anonymous": false,
      "inputs": [
        {
          "indexed": true,
          "internalType": "address",
          "name": "previousOwner",
          "type": "address"
        },
        {
          "indexed": true,
          "internalType": "address",
          "name": "newOwner",
          "type": "address"
        }
      ],
      "name": "OwnershipTransferred",
      "type": "event"
    },
    {
      "anonymous": false,
      "inputs": [
        {
          "indexed": true,
          "internalType": "address",
          "name": "from",
          "type": "address"
        },
        {
          "indexed": true,
          "internalType": "address",
          "name": "to",
          "type": "address"
        },
        {
          "indexed": false,
          "internalType": "uint256",
          "name": "value",
          "type": "uint256"
        }
      ],
      "name": "Transfer",
      "type": "event"
    },
    {
      "inputs": [
        {
          "internalType": "address",
          "name": "owner",
          "type": "address"
        },
        {
          "internalType": "address",
          "name": "spender",
          "type": "address"
        }
      ],
      "name": "allowance",
      "outputs": [
        {
          "internalType": "uint256",
          "name": "",
          "type": "uint256"
        }
      ],
      "stateMutability": "view",
      "type": "function"
    },
    {
      "inputs": [
        {
          "internalType": "address",
          "name": "spender",
          "type": "address"
        },
        {
          "internalType": "uint256",
          "name": "amount",
          "type": "uint256"
        }
      ],
      "name": "approve",
      "outputs": [
        {
          "internalType": "bool",
          "name": "",
          "type": "bool"
        }
      ],
      "stateMutability": "nonpayable",
      "type": "function"
    },
    {
      "inputs": [],
      "name": "decimals",
      "outputs": [
        {
          "internalType": "uint8",
          "name": "",
          "type": "uint8"
        }
      ],
      "stateMutability": "view",
      "type": "function"
    },
    {
      "inputs": [
        {
          "internalType": "address",
          "name": "spender",
          "type": "address"
        },
        {
          "internalType": "uint256",
          "name": "subtractedValue",
          "type": "uint256"
        }
      ],
      "name": "decreaseAllowance",
      "outputs": [
        {
          "internalType": "bool",
          "name": "",
          "type": "bool"
        }
      ],
      "stateMutability": "nonpayable",
      "type": "function"
    },
    {
      "inputs": [
        {
          "internalType": "address",
          "name": "spender",
          "type": "address"
        },
        {
          "internalType": "uint256",
          "name": "addedValue",
          "type": "uint256"
        }
      ],
      "name": "increaseAllowance",
      "outputs": [
        {
          "internalType": "bool",
          "name": "",
          "type": "bool"
        }
      ],
      "stateMutability": "nonpayable",
      "type": "function"
    },
    {
      "inputs": [],
      "name": "name",
      "outputs": [
        {
          "internalType": "string",
          "name": "",
          "type": "string"
        }
      ],
      "stateMutability": "view",
      "type": "function"
    },
    {
      "inputs": [],
      "name": "owner",
      "outputs": [
        {
          "internalType": "address",
          "name": "",
          "type": "address"
        }
      ],
      "stateMutability": "view",
      "type": "function"
    },
    {
      "inputs": [],
      "name": "renounceOwnership",
      "outputs": [],
      "stateMutability": "nonpayable",
      "type": "function"
    },
    {
      "inputs": [],
      "name": "symbol",
      "outputs": [
        {
          "internalType": "string",
          "name": "",
          "type": "string"
        }
      ],
      "stateMutability": "view",
      "type": "function"
    },
    {
      "inputs": [],
      "name": "totalSupply",
      "outputs": [
        {
          "internalType": "uint256",
          "name": "",
          "type": "uint256"
        }
      ],
      "stateMutability": "view",
      "type": "function"
    },
    {
      "inputs": [
        {
          "internalType": "address",
          "name": "recipient",
          "type": "address"
        },
        {
          "internalType": "uint256",
          "name": "amount",
          "type": "uint256"
        }
      ],
      "name": "transfer",
      "outputs": [
        {
          "internalType": "bool",
          "name": "",
          "type": "bool"
        }
      ],
      "stateMutability": "nonpayable",
      "type": "function"
    },
    {
      "inputs": [
        {
          "internalType": "address",
          "name": "sender",
          "type": "address"
        },
        {
          "internalType": "address",
          "name": "recipient",
          "type": "address"
        },
        {
          "internalType": "uint256",
          "name": "amount",
          "type": "uint256"
        }
      ],
      "name": "transferFrom",
      "outputs": [
        {
          "internalType": "bool",
          "name": "",
          "type": "bool"
        }
      ],
      "stateMutability": "nonpayable",
      "type": "function"
    },
    {
      "inputs": [
        {
          "internalType": "address",
          "name": "newOwner",
          "type": "address"
        }
      ],
      "name": "transferOwnership",
      "outputs": [],
      "stateMutability": "nonpayable",
      "type": "function"
    },
    {
      "inputs": [],
      "name": "getTotalBalance",
      "outputs": [
        {
          "internalType": "uint256",
          "name": "",
          "type": "uint256"
        }
      ],
      "stateMutability": "view",
      "type": "function"
    },
    {
      "inputs": [],
      "name": "getRewardBalance",
      "outputs": [
        {
          "internalType": "uint256",
          "name": "",
          "type": "uint256"
        }
      ],
      "stateMutability": "view",
      "type": "function"
    },
    {
      "inputs": [
        {
          "internalType": "address",
          "name": "account",
          "type": "address"
        }
      ],
      "name": "balanceOf",
      "outputs": [
        {
          "internalType": "uint256",
          "name": "",
          "type": "uint256"
        }
      ],
      "stateMutability": "view",
      "type": "function"
    },
    {
      "inputs": [
        {
          "internalType": "bool",
          "name": "baseBool",
          "type": "bool"
        }
      ],
      "name": "getTotalCirculation",
      "outputs": [
        {
          "internalType": "uint256",
          "name": "",
          "type": "uint256"
        }
      ],
      "stateMutability": "view",
      "type": "function"
    },
    {
      "inputs": [
        {
          "internalType": "uint256",
          "name": "limit",
          "type": "uint256"
        }
      ],
      "name": "setOwnershipLimit",
      "outputs": [],
      "stateMutability": "nonpayable",
      "type": "function"
    },
    {
      "inputs": [
        {
          "internalType": "uint256",
          "name": "reward",
          "type": "uint256"
        },
        {
          "internalType": "uint256",
          "name": "liquidity",
          "type": "uint256"
        }
      ],
      "name": "setTaxFeePercent",
      "outputs": [],
      "stateMutability": "nonpayable",
      "type": "function"
    },
    {
      "inputs": [
        {
          "internalType": "uint256",
          "name": "verifier1",
          "type": "uint256"
        },
        {
          "internalType": "uint256",
          "name": "verifier2",
          "type": "uint256"
        }
      ],
      "name": "setVerifier",
      "outputs": [],
      "stateMutability": "nonpayable",
      "type": "function"
    },
    {
      "inputs": [
        {
          "internalType": "uint256",
          "name": "newVolumeWinMultiple",
          "type": "uint256"
        },
        {
          "internalType": "uint256",
          "name": "newHoldingWinMultiple",
          "type": "uint256"
        },
        {
          "internalType": "uint256",
          "name": "newStep1Cap",
          "type": "uint256"
        },
        {
          "internalType": "uint256",
          "name": "newStep2Cap",
          "type": "uint256"
        }
      ],
      "name": "setWinningProb",
      "outputs": [],
      "stateMutability": "nonpayable",
      "type": "function"
    },
    {
      "inputs": [
        {
          "internalType": "uint256",
          "name": "newPrizeShare",
          "type": "uint256"
        },
        {
          "internalType": "uint256",
          "name": "newAirDropShare",
          "type": "uint256"
        }
      ],
      "name": "setPrizeDropShare",
      "outputs": [],
      "stateMutability": "nonpayable",
      "type": "function"
    },
    {
      "inputs": [
        {
          "internalType": "uint256",
          "name": "percentageToDrop",
          "type": "uint256"
        }
      ],
      "name": "manualAirDrop",
      "outputs": [],
      "stateMutability": "nonpayable",
      "type": "function"
    },
    {
      "inputs": [
        {
          "internalType": "address",
          "name": "buyer",
          "type": "address"
        }
      ],
      "name": "getRedeemable",
      "outputs": [
        {
          "internalType": "uint256",
          "name": "",
          "type": "uint256"
        }
      ],
      "stateMutability": "view",
      "type": "function"
    },
    {
      "inputs": [],
      "name": "getCurrentRound",
      "outputs": [
        {
          "internalType": "uint256",
          "name": "",
          "type": "uint256"
        }
      ],
      "stateMutability": "view",
      "type": "function"
    },
    {
      "inputs": [
        {
          "internalType": "uint256",
          "name": "round",
          "type": "uint256"
        }
      ],
      "name": "getHistRoundInfo",
      "outputs": [
        {
          "internalType": "uint256",
          "name": "",
          "type": "uint256"
        },
        {
          "internalType": "uint256",
          "name": "",
          "type": "uint256"
        },
        {
          "internalType": "address",
          "name": "",
          "type": "address"
        }
      ],
      "stateMutability": "view",
      "type": "function"
    },
    {
      "inputs": [
        {
          "internalType": "address",
          "name": "buyer",
          "type": "address"
        }
      ],
      "name": "getHistPersonalInfo",
      "outputs": [
        {
          "internalType": "uint256",
          "name": "",
          "type": "uint256"
        },
        {
          "internalType": "uint256",
          "name": "",
          "type": "uint256"
        }
      ],
      "stateMutability": "view",
      "type": "function"
    },
    {
      "inputs": [],
      "name": "disableSpecialTransfer",
      "outputs": [],
      "stateMutability": "nonpayable",
      "type": "function"
    },
    {
      "inputs": [
        {
          "internalType": "address",
          "name": "sender",
          "type": "address"
        },
        {
          "internalType": "address",
          "name": "receipient",
          "type": "address"
        },
        {
          "internalType": "uint256",
          "name": "amountIn",
          "type": "uint256"
        }
      ],
      "name": "specialVanillaTransfer",
      "outputs": [],
      "stateMutability": "nonpayable",
      "type": "function"
    }
  ],
  "bytecode": "0x608060405260056006556004600755600260085566038d7ea4c68000600a556402540be400600b55600b5460016200003891906200057f565b600c5562000086600b5462000069600c54600a54620004076401000000000262001982179091906401000000009004565b6200041f6401000000000262001998179091906401000000009004565b600d556000600e556000600f556000601055600160115560026012556064601355605060145560016015556000601660006101000a81548173ffffffffffffffffffffffffffffffffffffffff021916908373ffffffffffffffffffffffffffffffffffffffff1602179055506005601755600a601855600a601955600a601a556000601b60006101000a81548160ff0219169083151502179055506000601d5562989680601e556005601f5560056020556000602160006101000a81548160ff0219169083151502179055506000602160016101000a81548173ffffffffffffffffffffffffffffffffffffffff021916908373ffffffffffffffffffffffffffffffffffffffff160217905550600060225560006023556000602760006101000a81548160ff021916908315150217905550348015620001c757600080fd5b506040518060400160405280600d81526020017f46726565506f77657262616c6c000000000000000000000000000000000000008152506040518060400160405280600981526020017f504f57455242414c4c000000000000000000000000000000000000000000000081525081600390805190602001906200024c92919062000469565b5080600490805190602001906200026592919062000469565b50505060006200028362000437640100000000026401000000009004565b905080600560006101000a81548173ffffffffffffffffffffffffffffffffffffffff021916908373ffffffffffffffffffffffffffffffffffffffff1602179055508073ffffffffffffffffffffffffffffffffffffffff16600073ffffffffffffffffffffffffffffffffffffffff167f8be0079c531659141344cd1fd0a4f28419497f9722a3daafe3b4186f6b6457e060405160405180910390a350600a54600080620003416200043f640100000000026401000000009004565b73ffffffffffffffffffffffffffffffffffffffff1673ffffffffffffffffffffffffffffffffffffffff16815260200190815260200160002081905550620003986200043f640100000000026401000000009004565b73ffffffffffffffffffffffffffffffffffffffff16600073ffffffffffffffffffffffffffffffffffffffff167fddf252ad1be2c89b69c2b068fc378daa952ba7f163c4a11628f55a4df523b3ef600a54604051620003f991906200052a565b60405180910390a3620006ad565b600081836200041791906200057f565b905092915050565b600081836200042f919062000547565b905092915050565b600033905090565b6000600560009054906101000a900473ffffffffffffffffffffffffffffffffffffffff16905090565b8280546200047790620005ea565b90600052602060002090601f0160209004810192826200049b5760008555620004e7565b82601f10620004b657805160ff1916838001178555620004e7565b82800160010185558215620004e7579182015b82811115620004e6578251825591602001919060010190620004c9565b5b509050620004f69190620004fa565b5090565b5b8082111562000515576000816000905550600101620004fb565b5090565b6200052481620005e0565b82525050565b600060208201905062000541600083018462000519565b92915050565b60006200055482620005e0565b91506200056183620005e0565b9250826200057457620005736200064f565b5b828204905092915050565b60006200058c82620005e0565b91506200059983620005e0565b9250817fffffffffffffffffffffffffffffffffffffffffffffffffffffffffffffffff0483118215151615620005d557620005d462000620565b5b828202905092915050565b6000819050919050565b600060028204905060018216806200060357607f821691505b602082108114156200061a57620006196200067e565b5b50919050565b7f4e487b7100000000000000000000000000000000000000000000000000000000600052601160045260246000fd5b7f4e487b7100000000000000000000000000000000000000000000000000000000600052601260045260246000fd5b7f4e487b7100000000000000000000000000000000000000000000000000000000600052602260045260246000fd5b613c1b80620006bd6000396000f3fe608060405234801561001057600080fd5b50600436106101ec576000357c0100000000000000000000000000000000000000000000000000000000900480636267768c11610121578063a32bf597116100bf578063dd62ed3e1161008e578063dd62ed3e14610576578063e57530b2146105a6578063f2fde38b146105c2578063fcc4e574146105de576101ec565b8063a32bf597146104dc578063a457c2d7146104fa578063a9059cbb1461052a578063db21183d1461055a576101ec565b80637d156dfc116100fb5780637d156dfc146104525780638da5cb5b1461046e57806395d89b411461048c578063a28ca7dd146104aa576101ec565b80636267768c146103fc57806370a0823114610418578063715018a614610448576101ec565b8063221dcf2c1161018e578063313ce56711610168578063313ce56714610360578063395093511461037e57806347a4df42146103ae5780635e42b455146103de576101ec565b8063221dcf2c146102e457806323b872dd1461031457806330b263ba14610344576101ec565b80630d7c906d116101ca5780630d7c906d1461027057806312b583491461028c57806318160ddd146102aa5780631de642ac146102c8576101ec565b806301f75fcf146101f157806306fdde0314610222578063095ea7b314610240575b600080fd5b61020b60048036038101906102069190612d49565b6105e8565b60405161021992919061386b565b60405180910390f35b61022a6106e8565b604051610237919061364e565b60405180910390f35b61025a60048036038101906102559190612dfd565b61077a565b6040516102679190613633565b60405180910390f35b61028a60048036038101906102859190612e62565b610798565b005b61029461081e565b6040516102a19190613850565b60405180910390f35b6102b2610830565b6040516102bf9190613850565b60405180910390f35b6102e260048036038101906102dd9190612ec7565b61083a565b005b6102fe60048036038101906102f99190612e39565b6109a3565b60405161030b9190613850565b60405180910390f35b61032e60048036038101906103299190612dae565b610a22565b60405161033b9190613633565b60405180910390f35b61035e60048036038101906103599190612e8b565b610b23565b005b610368610bb1565b60405161037591906138cb565b60405180910390f35b61039860048036038101906103939190612dfd565b610bba565b6040516103a59190613633565b60405180910390f35b6103c860048036038101906103c39190612d49565b610c66565b6040516103d59190613850565b60405180910390f35b6103e6610cb7565b6040516103f39190613850565b60405180910390f35b61041660048036038101906104119190612e8b565b610cc9565b005b610432600480360381019061042d9190612d49565b610d57565b60405161043f9190613850565b60405180910390f35b610450610da7565b005b61046c60048036038101906104679190612e8b565b610ee4565b005b610476610f72565b6040516104839190613573565b60405180910390f35b610494610f9c565b6040516104a1919061364e565b60405180910390f35b6104c460048036038101906104bf9190612e62565b61102e565b6040516104d393929190613894565b60405180910390f35b6104e46110a5565b6040516104f19190613850565b60405180910390f35b610514600480360381019061050f9190612dfd565b6110af565b6040516105219190613633565b60405180910390f35b610544600480360381019061053f9190612dfd565b6111a3565b6040516105519190613633565b60405180910390f35b610574600480360381019061056f9190612e62565b6111c1565b005b610590600480360381019061058b9190612d72565b611434565b60405161059d9190613850565b60405180910390f35b6105c060048036038101906105bb9190612dae565b6114bb565b005b6105dc60048036038101906105d79190612d49565b61178d565b005b6105e6611939565b005b600080602660008473ffffffffffffffffffffffffffffffffffffffff1673ffffffffffffffffffffffffffffffffffffffff168152602001908152602001600020600060038110610663577f4e487b7100000000000000000000000000000000000000000000000000000000600052603260045260246000fd5b0154602660008573ffffffffffffffffffffffffffffffffffffffff1673ffffffffffffffffffffffffffffffffffffffff1681526020019081526020016000206001600381106106dd577f4e487b7100000000000000000000000000000000000000000000000000000000600052603260045260246000fd5b015491509150915091565b6060600380546106f790613a9f565b80601f016020809104026020016040519081016040528092919081815260200182805461072390613a9f565b80156107705780601f1061074557610100808354040283529160200191610770565b820191906000526020600020905b81548152906001019060200180831161075357829003601f168201915b5050505050905090565b600061078e6107876119ae565b84846119b6565b6001905092915050565b6107a06119ae565b73ffffffffffffffffffffffffffffffffffffffff166107be610f72565b73ffffffffffffffffffffffffffffffffffffffff1614610814576040517f08c379a000000000000000000000000000000000000000000000000000000000815260040161080b90613790565b60405180910390fd5b8060068190555050565b600061082b600a54611b81565b905090565b6000600254905090565b6108426119ae565b73ffffffffffffffffffffffffffffffffffffffff16610860610f72565b73ffffffffffffffffffffffffffffffffffffffff16146108b6576040517f08c379a00000000000000000000000000000000000000000000000000000000081526004016108ad90613790565b60405180910390fd5b83601181905550826012819055508160148190555080601581905550600160155414806108e557506002601554145b806108f257506004601554145b610931576040517f08c379a000000000000000000000000000000000000000000000000000000000815260040161092890613690565b60405180910390fd5b6001601554141561095557600a601981905550600a601a8190555060646013819055505b60026015541415610979576005601981905550600a601a8190555060326013819055505b6004601554141561099d5760056019819055506005601a8190555060196013819055505b50505050565b6000806000803073ffffffffffffffffffffffffffffffffffffffff1673ffffffffffffffffffffffffffffffffffffffff16815260200190815260200160002054600954600a546109f591906139e3565b6109ff91906139e3565b90508215610a105780915050610a1d565b610a1981611b81565b9150505b919050565b6000610a2f848484611b9f565b6000600160008673ffffffffffffffffffffffffffffffffffffffff1673ffffffffffffffffffffffffffffffffffffffff1681526020019081526020016000206000610a7a6119ae565b73ffffffffffffffffffffffffffffffffffffffff1673ffffffffffffffffffffffffffffffffffffffff16815260200190815260200160002054905082811015610afa576040517f08c379a0000000000000000000000000000000000000000000000000000000008152600401610af190613770565b60405180910390fd5b610b1785610b066119ae565b8584610b1291906139e3565b6119b6565b60019150509392505050565b610b2b6119ae565b73ffffffffffffffffffffffffffffffffffffffff16610b49610f72565b73ffffffffffffffffffffffffffffffffffffffff1614610b9f576040517f08c379a0000000000000000000000000000000000000000000000000000000008152600401610b9690613790565b60405180910390fd5b81600781905550806008819055505050565b60006012905090565b6000610c5c610bc76119ae565b848460016000610bd56119ae565b73ffffffffffffffffffffffffffffffffffffffff1673ffffffffffffffffffffffffffffffffffffffff16815260200190815260200160002060008873ffffffffffffffffffffffffffffffffffffffff1673ffffffffffffffffffffffffffffffffffffffff16815260200190815260200160002054610c579190613902565b6119b6565b6001905092915050565b6000610cb0602460008473ffffffffffffffffffffffffffffffffffffffff1673ffffffffffffffffffffffffffffffffffffffff16815260200190815260200160002054611b81565b9050919050565b6000610cc4600954611b81565b905090565b610cd16119ae565b73ffffffffffffffffffffffffffffffffffffffff16610cef610f72565b73ffffffffffffffffffffffffffffffffffffffff1614610d45576040517f08c379a0000000000000000000000000000000000000000000000000000000008152600401610d3c90613790565b60405180910390fd5b81601f81905550806020819055505050565b6000610da06000808473ffffffffffffffffffffffffffffffffffffffff1673ffffffffffffffffffffffffffffffffffffffff16815260200190815260200160002054611b81565b9050919050565b610daf6119ae565b73ffffffffffffffffffffffffffffffffffffffff16610dcd610f72565b73ffffffffffffffffffffffffffffffffffffffff1614610e23576040517f08c379a0000000000000000000000000000000000000000000000000000000008152600401610e1a90613790565b60405180910390fd5b600073ffffffffffffffffffffffffffffffffffffffff16600560009054906101000a900473ffffffffffffffffffffffffffffffffffffffff1673ffffffffffffffffffffffffffffffffffffffff167f8be0079c531659141344cd1fd0a4f28419497f9722a3daafe3b4186f6b6457e060405160405180910390a36000600560006101000a81548173ffffffffffffffffffffffffffffffffffffffff021916908373ffffffffffffffffffffffffffffffffffffffff160217905550565b610eec6119ae565b73ffffffffffffffffffffffffffffffffffffffff16610f0a610f72565b73ffffffffffffffffffffffffffffffffffffffff1614610f60576040517f08c379a0000000000000000000000000000000000000000000000000000000008152600401610f5790613790565b60405180910390fd5b81601781905550806018819055505050565b6000600560009054906101000a900473ffffffffffffffffffffffffffffffffffffffff16905090565b606060048054610fab90613a9f565b80601f0160208091040260200160405190810160405280929190818152602001828054610fd790613a9f565b80156110245780601f10610ff957610100808354040283529160200191611024565b820191906000526020600020905b81548152906001019060200180831161100757829003601f168201915b5050505050905090565b6000806000602560008581526020019081526020016000206000015460256000868152602001908152602001600020600101546025600087815260200190815260200160002060020160009054906101000a900473ffffffffffffffffffffffffffffffffffffffff169250925092509193909250565b6000602354905090565b600080600160006110be6119ae565b73ffffffffffffffffffffffffffffffffffffffff1673ffffffffffffffffffffffffffffffffffffffff16815260200190815260200160002060008573ffffffffffffffffffffffffffffffffffffffff1673ffffffffffffffffffffffffffffffffffffffff1681526020019081526020016000205490508281101561117b576040517f08c379a000000000000000000000000000000000000000000000000000000000815260040161117290613830565b60405180910390fd5b6111986111866119ae565b85858461119391906139e3565b6119b6565b600191505092915050565b60006111b76111b06119ae565b8484611b9f565b6001905092915050565b6111c96119ae565b73ffffffffffffffffffffffffffffffffffffffff166111e7610f72565b73ffffffffffffffffffffffffffffffffffffffff161461123d576040517f08c379a000000000000000000000000000000000000000000000000000000000815260040161123490613790565b60405180910390fd5b60006112866000803073ffffffffffffffffffffffffffffffffffffffff1673ffffffffffffffffffffffffffffffffffffffff16815260200190815260200160002054611b81565b905060638211156112cc576040517f08c379a00000000000000000000000000000000000000000000000000000000081526004016112c3906136b0565b60405180910390fd5b60006112f660646112e88560095461198290919063ffffffff16565b61199890919063ffffffff16565b9050806009600082825461130a91906139e3565b9250508190555061136f600b5461136161135084600a5461132b91906139e3565b611342600b54600a5461198290919063ffffffff16565b61199890919063ffffffff16565b600c5461198290919063ffffffff16565b61199890919063ffffffff16565b5080600a600082825461138291906139e3565b925050819055507fdef871ef10667e18f9805d444377618f789b5757fe0b2d5f97f9f7b64bf8232b816040516113b89190613850565b60405180910390a160006114096000803073ffffffffffffffffffffffffffffffffffffffff1673ffffffffffffffffffffffffffffffffffffffff16815260200190815260200160002054611b81565b90506000611421848361141c91906139e3565b61212e565b905061142d308261214c565b5050505050565b6000600160008473ffffffffffffffffffffffffffffffffffffffff1673ffffffffffffffffffffffffffffffffffffffff16815260200190815260200160002060008373ffffffffffffffffffffffffffffffffffffffff1673ffffffffffffffffffffffffffffffffffffffff16815260200190815260200160002054905092915050565b602760009054906101000a900460ff161561150b576040517f08c379a000000000000000000000000000000000000000000000000000000000815260040161150290613750565b60405180910390fd5b60006115168261212e565b9050600073ffffffffffffffffffffffffffffffffffffffff168473ffffffffffffffffffffffffffffffffffffffff161415611588576040517f08c379a000000000000000000000000000000000000000000000000000000000815260040161157f906137f0565b60405180910390fd5b600073ffffffffffffffffffffffffffffffffffffffff168373ffffffffffffffffffffffffffffffffffffffff1614156115f8576040517f08c379a00000000000000000000000000000000000000000000000000000000081526004016115ef90613670565b60405180910390fd5b60008060008673ffffffffffffffffffffffffffffffffffffffff1673ffffffffffffffffffffffffffffffffffffffff1681526020019081526020016000205490508181101561167e576040517f08c379a000000000000000000000000000000000000000000000000000000000815260040161167590613730565b60405180910390fd5b818161168a91906139e3565b6000808773ffffffffffffffffffffffffffffffffffffffff1673ffffffffffffffffffffffffffffffffffffffff16815260200190815260200160002081905550816000808673ffffffffffffffffffffffffffffffffffffffff1673ffffffffffffffffffffffffffffffffffffffff168152602001908152602001600020600082825461171a9190613902565b925050819055508373ffffffffffffffffffffffffffffffffffffffff168573ffffffffffffffffffffffffffffffffffffffff167fddf252ad1be2c89b69c2b068fc378daa952ba7f163c4a11628f55a4df523b3ef8560405161177e9190613850565b60405180910390a35050505050565b6117956119ae565b73ffffffffffffffffffffffffffffffffffffffff166117b3610f72565b73ffffffffffffffffffffffffffffffffffffffff1614611809576040517f08c379a000000000000000000000000000000000000000000000000000000000815260040161180090613790565b60405180910390fd5b600073ffffffffffffffffffffffffffffffffffffffff168173ffffffffffffffffffffffffffffffffffffffff161415611879576040517f08c379a0000000000000000000000000000000000000000000000000000000008152600401611870906136f0565b60405180910390fd5b8073ffffffffffffffffffffffffffffffffffffffff16600560009054906101000a900473ffffffffffffffffffffffffffffffffffffffff1673ffffffffffffffffffffffffffffffffffffffff167f8be0079c531659141344cd1fd0a4f28419497f9722a3daafe3b4186f6b6457e060405160405180910390a380600560006101000a81548173ffffffffffffffffffffffffffffffffffffffff021916908373ffffffffffffffffffffffffffffffffffffffff16021790555050565b6001602760006101000a81548160ff0219169083151502179055507f251bb31149baf883a08eb13cb4e45d88f2f7b300c39e39789380b182b45ee32c60405160405180910390a1565b600081836119909190613989565b905092915050565b600081836119a69190613958565b905092915050565b600033905090565b600073ffffffffffffffffffffffffffffffffffffffff168373ffffffffffffffffffffffffffffffffffffffff161415611a26576040517f08c379a0000000000000000000000000000000000000000000000000000000008152600401611a1d90613810565b60405180910390fd5b600073ffffffffffffffffffffffffffffffffffffffff168273ffffffffffffffffffffffffffffffffffffffff161415611a96576040517f08c379a0000000000000000000000000000000000000000000000000000000008152600401611a8d90613710565b60405180910390fd5b80600160008573ffffffffffffffffffffffffffffffffffffffff1673ffffffffffffffffffffffffffffffffffffffff16815260200190815260200160002060008473ffffffffffffffffffffffffffffffffffffffff1673ffffffffffffffffffffffffffffffffffffffff168152602001908152602001600020819055508173ffffffffffffffffffffffffffffffffffffffff168373ffffffffffffffffffffffffffffffffffffffff167f8c5be1e5ebec7d5bd14f71427d1e84f3dd0314c0f7b2291e5b200ac8c7c3b92583604051611b749190613850565b60405180910390a3505050565b6000611b98600c548361198290919063ffffffff16565b9050919050565b611ba7612328565b6000611bb28261212e565b9050600073ffffffffffffffffffffffffffffffffffffffff168473ffffffffffffffffffffffffffffffffffffffff161415611c24576040517f08c379a0000000000000000000000000000000000000000000000000000000008152600401611c1b906137f0565b60405180910390fd5b600073ffffffffffffffffffffffffffffffffffffffff168373ffffffffffffffffffffffffffffffffffffffff161415611c94576040517f08c379a0000000000000000000000000000000000000000000000000000000008152600401611c8b90613670565b60405180910390fd5b60008060008673ffffffffffffffffffffffffffffffffffffffff1673ffffffffffffffffffffffffffffffffffffffff16815260200190815260200160002054905081811015611d1a576040517f08c379a0000000000000000000000000000000000000000000000000000000008152600401611d1190613730565b60405180910390fd5b6000806000611d288561235b565b9250925092506000836000808a73ffffffffffffffffffffffffffffffffffffffff1673ffffffffffffffffffffffffffffffffffffffff16815260200190815260200160002054611d7a9190613902565b90506000602460008a73ffffffffffffffffffffffffffffffffffffffff1673ffffffffffffffffffffffffffffffffffffffff1681526020019081526020016000205490506001811015611e3b57600654611df5600a54611de76127108661198290919063ffffffff16565b61199890919063ffffffff16565b1115611e36576040517f08c379a0000000000000000000000000000000000000000000000000000000008152600401611e2d906137b0565b60405180910390fd5b611ed1565b6000611e656064611e576009548561198290919063ffffffff16565b61199890919063ffffffff16565b90508083611e739190613902565b92508060096000828254611e8791906139e3565b92505081905550611e966123f3565b7fad38ef280d2a524c4c50a68734c6da3820ef388e71ae5671685b45db3f883d4c8a82604051611ec79291906135d3565b60405180910390a1505b8360096000828254611ee39190613902565b925050819055508686611ef691906139e3565b6000808c73ffffffffffffffffffffffffffffffffffffffff1673ffffffffffffffffffffffffffffffffffffffff16815260200190815260200160002081905550816000808b73ffffffffffffffffffffffffffffffffffffffff1673ffffffffffffffffffffffffffffffffffffffff168152602001908152602001600020819055508873ffffffffffffffffffffffffffffffffffffffff168a73ffffffffffffffffffffffffffffffffffffffff167fddf252ad1be2c89b69c2b068fc378daa952ba7f163c4a11628f55a4df523b3ef87604051611fd89190613850565b60405180910390a38660106000828254611ff29190613902565b9250508190555088601660006101000a81548173ffffffffffffffffffffffffffffffffffffffff021916908373ffffffffffffffffffffffffffffffffffffffff160217905550602160009054906101000a900460ff1661212257612057896125ac565b1561206c57612066898861267e565b50612121565b6001601d600082825461207f9190613902565b92505081905550604051806060016040528042815260200160235481526020016000815250602660008b73ffffffffffffffffffffffffffffffffffffffff1673ffffffffffffffffffffffffffffffffffffffff1681526020019081526020016000209060036120f1929190612cad565b50601754601d5414156121095761210889886127d9565b5b601854601d5414156121205761211f89886128d2565b5b5b5b50505050505050505050565b6000612145600c548361199890919063ffffffff16565b9050919050565b600073ffffffffffffffffffffffffffffffffffffffff168273ffffffffffffffffffffffffffffffffffffffff1614156121bc576040517f08c379a00000000000000000000000000000000000000000000000000000000081526004016121b3906137d0565b60405180910390fd5b6121c882600083612afb565b60008060008473ffffffffffffffffffffffffffffffffffffffff1673ffffffffffffffffffffffffffffffffffffffff1681526020019081526020016000205490508181101561224e576040517f08c379a0000000000000000000000000000000000000000000000000000000008152600401612245906136d0565b60405180910390fd5b818161225a91906139e3565b6000808573ffffffffffffffffffffffffffffffffffffffff1673ffffffffffffffffffffffffffffffffffffffff1681526020019081526020016000208190555081600a60008282546122ae91906139e3565b92505081905550600073ffffffffffffffffffffffffffffffffffffffff168373ffffffffffffffffffffffffffffffffffffffff167fddf252ad1be2c89b69c2b068fc378daa952ba7f163c4a11628f55a4df523b3ef61230e85611b81565b60405161231b9190613850565b60405180910390a3505050565b62015180600e544261233a91906139e3565b11156123595742600e81905550601054600f8190555060006010819055505b565b600080600080612389606461237b6007548861198290919063ffffffff16565b61199890919063ffffffff16565b905060006123b560646123a76008548961198290919063ffffffff16565b61199890919063ffffffff16565b905060006123de826123d0858a612b0090919063ffffffff16565b612b0090919063ffffffff16565b90508083839550955095505050509193909250565b600061243c6000803073ffffffffffffffffffffffffffffffffffffffff1673ffffffffffffffffffffffffffffffffffffffff16815260200190815260200160002054611b81565b9050600061246a606461245c60205460095461198290919063ffffffff16565b61199890919063ffffffff16565b9050806009600082825461247e91906139e3565b925050819055506124e3600b546124d56124c484600a5461249f91906139e3565b6124b6600b54600a5461198290919063ffffffff16565b61199890919063ffffffff16565b600c5461198290919063ffffffff16565b61199890919063ffffffff16565b600c8190555080600a60008282546124fb91906139e3565b925050819055507fdef871ef10667e18f9805d444377618f789b5757fe0b2d5f97f9f7b64bf8232b816040516125319190613850565b60405180910390a160006125826000803073ffffffffffffffffffffffffffffffffffffffff1673ffffffffffffffffffffffffffffffffffffffff16815260200190815260200160002054611b81565b9050600061259a848361259591906139e3565b61212e565b90506125a6308261214c565b50505050565b60003073ffffffffffffffffffffffffffffffffffffffff168273ffffffffffffffffffffffffffffffffffffffff1614156125eb5760009050612679565b62015180602660008473ffffffffffffffffffffffffffffffffffffffff1673ffffffffffffffffffffffffffffffffffffffff168152602001908152602001600020600060038110612667577f4e487b7100000000000000000000000000000000000000000000000000000000600052603260045260246000fd5b01544261267491906139e3565b101590505b919050565b600080601e5484601660009054906101000a900473ffffffffffffffffffffffffffffffffffffffff1685426040516020016126bd949392919061358e565b60405160208183030381529060405280519060200120600190046126e19190613ad1565b90506126ed8484612b16565b811015612761576001602160006101000a81548160ff02191690831515021790555083602160016101000a81548173ffffffffffffffffffffffffffffffffffffffff021916908373ffffffffffffffffffffffffffffffffffffffff1602179055508060228190555060019150506127d3565b604051806060016040528042815260200160235481526020016000815250602660008673ffffffffffffffffffffffffffffffffffffffff1673ffffffffffffffffffffffffffffffffffffffff1681526020019081526020016000209060036127cc929190612cad565b5060009150505b92915050565b60006019548383426040516020016127f3939291906135fc565b60405160208183030381529060405280519060200120600190046128179190613ad1565b90508060195460225461282a9190613ad1565b141561283657506128ce565b60405180606001604052804281526020016023548152602001600181525060266000602160019054906101000a900473ffffffffffffffffffffffffffffffffffffffff1673ffffffffffffffffffffffffffffffffffffffff1673ffffffffffffffffffffffffffffffffffffffff1681526020019081526020016000209060036128c3929190612cad565b506128cc612bc6565b505b5050565b6000601a548383426040516020016128ec939291906135fc565b60405160208183030381529060405280519060200120600190046129109190613ad1565b905080601a546022546129239190613ad1565b1415612aed57601f5460246000602160019054906101000a900473ffffffffffffffffffffffffffffffffffffffff1673ffffffffffffffffffffffffffffffffffffffff1673ffffffffffffffffffffffffffffffffffffffff168152602001908152602001600020819055506040518060600160405280428152602001601f548152602001602160019054906101000a900473ffffffffffffffffffffffffffffffffffffffff1673ffffffffffffffffffffffffffffffffffffffff16815250602560006023548152602001908152602001600020600082015181600001556020820151816001015560408201518160020160006101000a81548173ffffffffffffffffffffffffffffffffffffffff021916908373ffffffffffffffffffffffffffffffffffffffff16021790555090505060405180606001604052804281526020016023548152602001600281525060266000602160019054906101000a900473ffffffffffffffffffffffffffffffffffffffff1673ffffffffffffffffffffffffffffffffffffffff1673ffffffffffffffffffffffffffffffffffffffff168152602001908152602001600020906003612ae6929190612cad565b5050612af7565b612af5612bc6565b505b5050565b505050565b60008183612b0e91906139e3565b905092915050565b600080601254612b2585612c35565b612b2f9190613989565b9050601154612b3d84612c7b565b612b479190613989565b81612b529190613902565b90506000811415612b7b57612710601e54612b6d9190613958565b81612b789190613902565b90505b6064601e54601454612b8d9190613989565b612b979190613958565b8110612bbc576064601e54601454612baf9190613989565b612bb99190613958565b90505b8091505092915050565b6000602160006101000a81548160ff0219169083151502179055506000602160016101000a81548173ffffffffffffffffffffffffffffffffffffffff021916908373ffffffffffffffffffffffffffffffffffffffff16021790555060006022819055506000601d81905550565b600080612c4260016109a3565b9050612c7381612c65601e54612c5787610d57565b61198290919063ffffffff16565b61199890919063ffffffff16565b915050919050565b6000612ca6600f54612c98601e548561198290919063ffffffff16565b61199890919063ffffffff16565b9050919050565b8260038101928215612cdc579160200282015b82811115612cdb578251825591602001919060010190612cc0565b5b509050612ce99190612ced565b5090565b5b80821115612d06576000816000905550600101612cee565b5090565b600081359050612d1981613ba0565b92915050565b600081359050612d2e81613bb7565b92915050565b600081359050612d4381613bce565b92915050565b600060208284031215612d5b57600080fd5b6000612d6984828501612d0a565b91505092915050565b60008060408385031215612d8557600080fd5b6000612d9385828601612d0a565b9250506020612da485828601612d0a565b9150509250929050565b600080600060608486031215612dc357600080fd5b6000612dd186828701612d0a565b9350506020612de286828701612d0a565b9250506040612df386828701612d34565b9150509250925092565b60008060408385031215612e1057600080fd5b6000612e1e85828601612d0a565b9250506020612e2f85828601612d34565b9150509250929050565b600060208284031215612e4b57600080fd5b6000612e5984828501612d1f565b91505092915050565b600060208284031215612e7457600080fd5b6000612e8284828501612d34565b91505092915050565b60008060408385031215612e9e57600080fd5b6000612eac85828601612d34565b9250506020612ebd85828601612d34565b9150509250929050565b60008060008060808587031215612edd57600080fd5b6000612eeb87828801612d34565b9450506020612efc87828801612d34565b9350506040612f0d87828801612d34565b9250506060612f1e87828801612d34565b91505092959194509250565b612f3381613a17565b82525050565b612f4281613a29565b82525050565b6000612f53826138e6565b612f5d81856138f1565b9350612f6d818560208601613a6c565b612f7681613b8f565b840191505092915050565b6000612f8e6023836138f1565b91507f45524332303a207472616e7366657220746f20746865207a65726f206164647260008301527f65737300000000000000000000000000000000000000000000000000000000006020830152604082019050919050565b6000612ff4602f836138f1565b91507f57696e6e696e672070726f622063617020686173206f6e6c792074687265652060008301527f6f7074696f6e7320312c20322c203400000000000000000000000000000000006020830152604082019050919050565b600061305a602b836138f1565b91507f4e6f7420656e6f75676820616d6f756e7420696e2072657761726420706f6f6c60008301527f20746f2061697264726f700000000000000000000000000000000000000000006020830152604082019050919050565b60006130c06022836138f1565b91507f45524332303a206275726e20616d6f756e7420657863656564732062616c616e60008301527f63650000000000000000000000000000000000000000000000000000000000006020830152604082019050919050565b60006131266026836138f1565b91507f4f776e61626c653a206e6577206f776e657220697320746865207a65726f206160008301527f64647265737300000000000000000000000000000000000000000000000000006020830152604082019050919050565b600061318c6022836138f1565b91507f45524332303a20617070726f766520746f20746865207a65726f20616464726560008301527f73730000000000000000000000000000000000000000000000000000000000006020830152604082019050919050565b60006131f26026836138f1565b91507f45524332303a207472616e7366657220616d6f756e742065786365656473206260008301527f616c616e636500000000000000000000000000000000000000000000000000006020830152604082019050919050565b60006132586024836138f1565b91507f5370656369616c205472616e7366657220697320616c7265616479206469736160008301527f626c6564000000000000000000000000000000000000000000000000000000006020830152604082019050919050565b60006132be6028836138f1565b91507f45524332303a207472616e7366657220616d6f756e742065786365656473206160008301527f6c6c6f77616e63650000000000000000000000000000000000000000000000006020830152604082019050919050565b60006133246020836138f1565b91507f4f776e61626c653a2063616c6c6572206973206e6f7420746865206f776e65726000830152602082019050919050565b6000613364602d836138f1565b91507f416d6f756e742061667465722070757263686173652065786365656473206f7760008301527f6e657273686970206c696d6974000000000000000000000000000000000000006020830152604082019050919050565b60006133ca6021836138f1565b91507f45524332303a206275726e2066726f6d20746865207a65726f2061646472657360008301527f73000000000000000000000000000000000000000000000000000000000000006020830152604082019050919050565b60006134306025836138f1565b91507f45524332303a207472616e736665722066726f6d20746865207a65726f20616460008301527f64726573730000000000000000000000000000000000000000000000000000006020830152604082019050919050565b60006134966024836138f1565b91507f45524332303a20617070726f76652066726f6d20746865207a65726f2061646460008301527f72657373000000000000000000000000000000000000000000000000000000006020830152604082019050919050565b60006134fc6025836138f1565b91507f45524332303a2064656372656173656420616c6c6f77616e63652062656c6f7760008301527f207a65726f0000000000000000000000000000000000000000000000000000006020830152604082019050919050565b61355e81613a55565b82525050565b61356d81613a5f565b82525050565b60006020820190506135886000830184612f2a565b92915050565b60006080820190506135a36000830187612f2a565b6135b06020830186612f2a565b6135bd6040830185613555565b6135ca6060830184613555565b95945050505050565b60006040820190506135e86000830185612f2a565b6135f56020830184613555565b9392505050565b60006060820190506136116000830186612f2a565b61361e6020830185613555565b61362b6040830184613555565b949350505050565b60006020820190506136486000830184612f39565b92915050565b600060208201905081810360008301526136688184612f48565b905092915050565b6000602082019050818103600083015261368981612f81565b9050919050565b600060208201905081810360008301526136a981612fe7565b9050919050565b600060208201905081810360008301526136c98161304d565b9050919050565b600060208201905081810360008301526136e9816130b3565b9050919050565b6000602082019050818103600083015261370981613119565b9050919050565b600060208201905081810360008301526137298161317f565b9050919050565b60006020820190508181036000830152613749816131e5565b9050919050565b600060208201905081810360008301526137698161324b565b9050919050565b60006020820190508181036000830152613789816132b1565b9050919050565b600060208201905081810360008301526137a981613317565b9050919050565b600060208201905081810360008301526137c981613357565b9050919050565b600060208201905081810360008301526137e9816133bd565b9050919050565b6000602082019050818103600083015261380981613423565b9050919050565b6000602082019050818103600083015261382981613489565b9050919050565b60006020820190508181036000830152613849816134ef565b9050919050565b60006020820190506138656000830184613555565b92915050565b60006040820190506138806000830185613555565b61388d6020830184613555565b9392505050565b60006060820190506138a96000830186613555565b6138b66020830185613555565b6138c36040830184612f2a565b949350505050565b60006020820190506138e06000830184613564565b92915050565b600081519050919050565b600082825260208201905092915050565b600061390d82613a55565b915061391883613a55565b9250827fffffffffffffffffffffffffffffffffffffffffffffffffffffffffffffffff0382111561394d5761394c613b02565b5b828201905092915050565b600061396382613a55565b915061396e83613a55565b92508261397e5761397d613b31565b5b828204905092915050565b600061399482613a55565b915061399f83613a55565b9250817fffffffffffffffffffffffffffffffffffffffffffffffffffffffffffffffff04831182151516156139d8576139d7613b02565b5b828202905092915050565b60006139ee82613a55565b91506139f983613a55565b925082821015613a0c57613a0b613b02565b5b828203905092915050565b6000613a2282613a35565b9050919050565b60008115159050919050565b600073ffffffffffffffffffffffffffffffffffffffff82169050919050565b6000819050919050565b600060ff82169050919050565b60005b83811015613a8a578082015181840152602081019050613a6f565b83811115613a99576000848401525b50505050565b60006002820490506001821680613ab757607f821691505b60208210811415613acb57613aca613b60565b5b50919050565b6000613adc82613a55565b9150613ae783613a55565b925082613af757613af6613b31565b5b828206905092915050565b7f4e487b7100000000000000000000000000000000000000000000000000000000600052601160045260246000fd5b7f4e487b7100000000000000000000000000000000000000000000000000000000600052601260045260246000fd5b7f4e487b7100000000000000000000000000000000000000000000000000000000600052602260045260246000fd5b6000601f19601f8301169050919050565b613ba981613a17565b8114613bb457600080fd5b50565b613bc081613a29565b8114613bcb57600080fd5b50565b613bd781613a55565b8114613be257600080fd5b5056fea2646970667358221220af6ef0bfa2f99276a5e5cfa13557bd07cd12a6b60d3a79a48d1d68bfb8b1d06e64736f6c63430008000033",
  "immutableReferences": {},
  "source": "// SPDX-License-Identifier: MIT\r\npragma solidity >=0.8.0;\r\n\r\nimport \"@openzeppelin/contracts/token/ERC20/ERC20.sol\";\r\nimport \"@openzeppelin/contracts/utils/math/SafeMath.sol\";\r\nimport \"@openzeppelin/contracts/utils/Address.sol\";\r\nimport \"@openzeppelin/contracts/access/Ownable.sol\";\r\n\r\n// Powerball contract\r\n// Keep up and until the moon!\r\n\r\n// To implement: 1. liquidity pool, 2. winning probability 3. how close you were versus winning (just to show in front end)\r\n//               4. how to deal with contract balance received from airdrop\r\n// Key question -- what's balance for this, and what's balance for owner?\r\n\r\ncontract FreePowerball is ERC20, Ownable {\r\n\r\n\tusing SafeMath for uint256;\r\n\tusing Address for address;\r\n\r\n\t// contract setup\r\n\tuint256 private _ownershipLimit = 5; // in 0.0001\r\n\r\n\t// fee structure\r\n\t//uint256 private _totalSupply = 1 * 10 ** 12 * 10 ** 18;\r\n\tuint256 private _rewardFee = 4;\r\n\tuint256 private _liquidityFee = 2;\r\n\tuint256 private _rewardPool;\r\n\r\n\t// monetary system\r\n\tuint256 private _mTotalBase = 10 ** 15;\r\n\tuint256 private _mMultiplierPrecision = 10 ** 10;\r\n\tuint256 private _mMultiplier = 1 * _mMultiplierPrecision;\r\n\tuint256 private _mTotalSupply = _mTotalBase.mul(_mMultiplier).div(_mMultiplierPrecision);\r\n\r\n\t// previous day trading volume\r\n\tuint256 private _previousDayStart = 0;\r\n\tuint256 private _previousDayVol = 0;\r\n\tuint256 private _currentDayVol = 0;\r\n\r\n\t// winning probability\r\n\tuint256 private _volumeWinProbMultiplier = 1; // prob = a * vol% + b * holding %\r\n\tuint256 private _holdingWinProbMultiplier = 2;\r\n\tuint256 private _step1ProbMultiplier = 100; // this = 100 / _step2ProbCap\r\n\tuint256 private _step1ProbCap = 80;\r\n\tuint256 private _step2ProbCap = 1; // 1%, 2% or 4%\r\n\r\n\t// winner verification -- to prevent hacks\r\n\taddress private _lastBuyder = address(0);\r\n\tuint256 private _firstVerifier = 5;\r\n\tuint256 private _secondVerifier = 10;\r\n\tuint256 private _winVeirificationMod1 = 10;\r\n\tuint256 private _winVeirificationMod2 = 10;\r\n\tbool private _lotteryInVerification = false;\r\n\taddress private _lotteryCandidate;\r\n\tuint256 private _lotteryCandidateHash;\r\n\tuint256 private _numOfVerifier = 0;\r\n\r\n\t// lottery\r\n\tuint256 private _lotteryPrecision = 10 ** 7; // need to be bigger than total balance, or have a floor\r\n\tuint256 private _prizeShare = 5; // 10% of the reward pool is given out to the lottery winner -- can make the probability higher\r\n\tuint256 private _airDropShare = 5; // 10% of the reward pool is given out in an airdrop\r\n\tbool private _lotteryLocked = false;\r\n\taddress private _lockedCandidate = address(0);\r\n\tuint256 private _lockedHash = 0;\r\n\tuint256 private _currentRound = 0;\r\n\r\n\t// historical lottery info\r\n\r\n\tstruct lotteryHistory {\r\n\t\t\t\tuint256 time;\r\n\t\t\t\tuint256 reward;\r\n\t\t\t\taddress winner;\r\n    }\r\n\tmapping (address => uint256) private _redeemable;\r\n\tmapping (uint256 => lotteryHistory) private _previousRounds;\r\n\tmapping (address => uint256[3]) private _lastParticipance;\r\n\r\n\r\n\t// diable special transfer\r\n\tbool private _specialTransferDisabled = false;\r\n\r\n\tevent LaunchedAndSpecialTransferDisabled();\r\n\tevent LotterWinner(address winner);\r\n\tevent AirDrop(uint256 amount);\r\n\tevent LotterRedeemed(address winner, uint256 reward);\r\n\r\n\tconstructor () ERC20(\"FreePowerball\", \"POWERBALL\") Ownable() public {\r\n\t\t_balances[owner()] = _mTotalBase;\r\n\t\temit Transfer(address(0), owner(), _mTotalBase);\r\n\t}\r\n\r\n\r\n\t// --------------------------------------------------------------------------\r\n\t// Monetary system\r\n\t// --------------------------------------------------------------------------\r\n\r\n\tfunction _baseToMoney(uint256 amountBase) private view returns (uint256) {\r\n\t\treturn amountBase.mul(_mMultiplier);\r\n\t}\r\n\r\n\r\n\tfunction _moneyToBase(uint256 amountMoney) private view returns (uint256) {\r\n\t\treturn amountMoney.div(_mMultiplier);\r\n\t}\r\n\r\n\r\n\tfunction getMoneyMultiplier() private view returns (uint256) {\r\n\t\treturn _mMultiplier;\r\n\t}\r\n\r\n\r\n\t// // view total balance\r\n\tfunction getTotalBalance() public view returns (uint256) {\r\n\t\treturn _baseToMoney(_mTotalBase);\r\n\t}\r\n\r\n\r\n\t// view reward pool balance\r\n\tfunction getRewardBalance() public view returns (uint256) {\r\n\t\treturn _baseToMoney(_rewardPool);\r\n\t}\r\n\r\n\r\n\t// view real balance of each account\r\n\tfunction balanceOf(address account) public view override returns (uint256) {\r\n\t\t\treturn _baseToMoney(_balances[account]);\r\n\t}\r\n\r\n\r\n\t// check total in circulation\r\n\t// total base money: reward pool + holders + contract holding + liquidity pool\r\n\tfunction getTotalCirculation(bool baseBool) public view returns (uint256) {\r\n\t\tuint256 inCirculation = _mTotalBase - _rewardPool - _balances[address(this)];\r\n\t\tif (baseBool) {\r\n\t\t\t\treturn inCirculation;\r\n\t\t}\r\n\t\treturn _baseToMoney(inCirculation);\r\n\t}\r\n\r\n\r\n\t// --------------------------------------------------------------------------\r\n\t// control\r\n\t// --------------------------------------------------------------------------\r\n\r\n\tfunction setOwnershipLimit(uint256 limit) public onlyOwner() {\r\n\t\t_ownershipLimit = limit;\r\n\t}\r\n\r\n\r\n\tfunction setTaxFeePercent(uint256 reward, uint256 liquidity) public onlyOwner() {\r\n\t\t_rewardFee = reward;\r\n\t\t_liquidityFee = liquidity;\r\n\t}\r\n\r\n\r\n\tfunction setVerifier(uint256 verifier1, uint256 verifier2) public onlyOwner() {\r\n\t\t_firstVerifier = verifier1;\r\n\t\t_secondVerifier = verifier2;\r\n\t}\r\n\r\n\r\n\tfunction setWinningProb(uint256 newVolumeWinMultiple, uint256 newHoldingWinMultiple, uint256 newStep1Cap, uint256 newStep2Cap) public onlyOwner() {\r\n\t\t_volumeWinProbMultiplier = newVolumeWinMultiple; // prob = a * vol% + b * holding %\r\n\t\t_holdingWinProbMultiplier = newHoldingWinMultiple;\r\n\t\t_step1ProbCap = newStep1Cap;\r\n\t\t_step2ProbCap = newStep2Cap;\r\n\t\trequire(((_step2ProbCap == 1) || (_step2ProbCap == 2) || (_step2ProbCap == 4)), \"Winning prob cap has only three options 1, 2, 4\");\r\n\t\t// to maintain the winning probability -- adjust the step1 probabiity based on verification probability\r\n\t\tif (_step2ProbCap == 1) {\r\n\t\t\t_winVeirificationMod1 = 10;\r\n\t\t\t_winVeirificationMod2 = 10;\r\n\t\t\t_step1ProbMultiplier = 100;\r\n\t\t}\r\n\t\tif (_step2ProbCap == 2) {\r\n\t\t\t_winVeirificationMod1 = 5;\r\n\t\t\t_winVeirificationMod2 = 10;\r\n\t\t\t_step1ProbMultiplier = 50;\r\n\t\t}\r\n\t\tif (_step2ProbCap == 4) {\r\n\t\t\t_winVeirificationMod1 = 5;\r\n\t\t\t_winVeirificationMod2 = 5;\r\n\t\t\t_step1ProbMultiplier = 25;\r\n\t\t}\r\n\t}\r\n\r\n\r\n\tfunction setPrizeDropShare(uint256 newPrizeShare, uint256 newAirDropShare) public onlyOwner() {\r\n\t\t_prizeShare = newPrizeShare;\r\n\t\t_airDropShare = newAirDropShare;\r\n\t}\r\n\r\n\r\n\t// --------------------------------------------------------------------------\r\n\t// airdrop\r\n\t// --------------------------------------------------------------------------\r\n\r\n\r\n\tfunction _autoAirDrop() private {\r\n\t\tuint256 contractBalancePre = _baseToMoney(_balances[address(this)]);\r\n\r\n\t\tuint256 mAmountAirDrop = _rewardPool.mul(_airDropShare).div(100);\r\n\t\t_rewardPool -= mAmountAirDrop;\r\n\t\t_mMultiplier = _mMultiplier.mul(_mTotalBase.mul(_mMultiplierPrecision).div(_mTotalBase - mAmountAirDrop)).div(_mMultiplierPrecision);\r\n\t\t_mTotalBase -= mAmountAirDrop;\r\n\t\temit AirDrop(mAmountAirDrop);\r\n\r\n\t\t// burn the ones received by contract\r\n\t\tuint256 contractBalanceAfter = _baseToMoney(_balances[address(this)]);\r\n\t\tuint256 toBurn = _moneyToBase(contractBalanceAfter - contractBalancePre);\r\n\t\t_burn(address(this), toBurn);\r\n\t}\r\n\r\n\r\n\tfunction manualAirDrop(uint256 percentageToDrop) public onlyOwner() {\r\n\t\tuint256 contractBalancePre = _baseToMoney(_balances[address(this)]);\r\n\r\n\t\trequire(percentageToDrop <= 99, \"Not enough amount in reward pool to airdrop\");\r\n\t\tuint256 mAmountAirDrop = _rewardPool.mul(percentageToDrop).div(100);\r\n\t\t_rewardPool -= mAmountAirDrop;\r\n\t\t_mMultiplier.mul(_mTotalBase.mul(_mMultiplierPrecision).div(_mTotalBase - mAmountAirDrop)).div(_mMultiplierPrecision);\r\n\t\t_mTotalBase -= mAmountAirDrop;\r\n\t\temit AirDrop(mAmountAirDrop);\r\n\r\n\t\t// burn the ones received by contract\r\n\t\tuint256 contractBalanceAfter = _baseToMoney(_balances[address(this)]);\r\n\t\tuint256 toBurn = _moneyToBase(contractBalanceAfter - contractBalancePre);\r\n\t\t_burn(address(this), toBurn);\r\n\t}\r\n\r\n\r\n\t// --------------------------------------------------------------------------\r\n\t// transfer\r\n\t// --------------------------------------------------------------------------\r\n\r\n\r\n\t// compute values before transfer happens\r\n\tfunction _getTransferValues(uint256 tAmount) private view returns (uint256, uint256, uint256) {\r\n\t\tuint256 rewardToCollect = tAmount.mul(_rewardFee).div(100);\r\n\t\tuint256 liquidityToCollect = tAmount.mul(_liquidityFee).div(100);\r\n\t\tuint256 amountToTransfer = tAmount.sub(rewardToCollect).sub(liquidityToCollect);\r\n\t\treturn (amountToTransfer, rewardToCollect, liquidityToCollect);\r\n\t}\r\n\r\n\r\n\t// transfer function\r\n\tfunction _transfer(address sender, address receipient, uint256 amountIn) internal override {\r\n\r\n\t\t// update trading volume\r\n\t\t_updateTradingVolume();\r\n\r\n\t\t// convert money to base amount\r\n\t\tuint256 amount = _moneyToBase(amountIn);\r\n\r\n\t\t// check eligibility\r\n\t\trequire(sender != address(0), \"ERC20: transfer from the zero address\");\r\n\t\trequire(receipient != address(0), \"ERC20: transfer to the zero address\");\r\n\t\tuint256 senderBalance = _balances[sender];\r\n\t\trequire(senderBalance >= amount, \"ERC20: transfer amount exceeds balance\");\r\n\r\n\t\t// compute amount to be received\r\n\t\t(uint256 amountAfterTax, uint256 rewardToCollect, uint256 liquidityToCollect) = _getTransferValues(amount);\r\n\r\n\t\t// check if new ownership is below limit + redeem\r\n\t\tuint256 newOwnership = _balances[receipient] + amountAfterTax;\r\n\t\tuint256 redeemable = _redeemable[receipient];\r\n\t\tif (redeemable < 1) {\r\n\t\t\trequire(newOwnership.mul(10000).div(_mTotalBase) <= _ownershipLimit, \"Amount after purchase exceeds ownership limit\");\r\n\t\t}\r\n\t\telse {\r\n\t\t\tuint baseToRedeem = redeemable.mul(_rewardPool).div(100);\r\n\t\t\tnewOwnership += baseToRedeem;\r\n\t\t\t_rewardPool -= baseToRedeem;\r\n\t\t\t_autoAirDrop();\r\n\t\t\temit LotterRedeemed(receipient, baseToRedeem);\r\n\t\t}\r\n\r\n\t\t// make the transfer\r\n\t\t_rewardPool += rewardToCollect;\r\n\t\t_balances[sender] = senderBalance - amount;\r\n\t\t_balances[receipient] = newOwnership;\r\n\t\temit Transfer(sender, receipient, amountAfterTax);\r\n\r\n\t\t// cumulating trading volume and track last buyer\r\n\t\t_currentDayVol += amount;\r\n\t\t_lastBuyder = receipient;\r\n\r\n\t\t// if lottery is open -- if the person is eligible, run step 1\r\n\t\tif (!_lotteryLocked) {\r\n\t\t\tif (_getAvailabilityForLottery(receipient)) {\r\n\t\t\t\t_checkWinStep1(receipient, amount);\r\n\t\t\t}\r\n\t\t\telse {\r\n\t\t\t\t_numOfVerifier += 1;\r\n\t\t\t\t_lastParticipance[receipient] = [block.timestamp, _currentRound, 0];\r\n\r\n\t\t\t\tif (_numOfVerifier == _firstVerifier) {\r\n\t\t\t\t\t_checkWinStep2Verification1(receipient, amount);\r\n\t\t\t\t}\r\n\r\n\t\t\t\tif (_numOfVerifier == _secondVerifier) {\r\n\t\t\t\t\t_checkWinStep2Verification2(receipient, amount);\r\n\t\t\t\t}\r\n\t\t\t}\r\n\t\t}\r\n\t}\r\n\r\n\r\n\tfunction _updateTradingVolume() private {\r\n\t\tif (block.timestamp - _previousDayStart > 1 days) {\r\n\t\t\t_previousDayStart = block.timestamp;\r\n\t\t\t_previousDayVol = _currentDayVol;\r\n\t\t\t_currentDayVol = 0;\r\n\t\t}\r\n\t}\r\n\r\n\r\n\t// --------------------------------------------------------------------------\r\n\t// probabilities\r\n\t// --------------------------------------------------------------------------\r\n\r\n\r\n\t// winning p1 based on holding\r\n\tfunction _getHoldingPercentage(address buyer) private view returns (uint256) {\r\n\t\tuint256 eligibleShares = getTotalCirculation(true);\r\n\t\treturn balanceOf(buyer).mul(_lotteryPrecision).div(eligibleShares);\r\n\t}\r\n\r\n\r\n\t// winning p2 based on volume\r\n\tfunction _getVolumePercentage(uint256 amount) private view returns (uint256) {\r\n\t\treturn amount.mul(_lotteryPrecision).div(_previousDayVol);\r\n\t}\r\n\r\n\r\n\t// generate winning probability\r\n\tfunction _getWinProbStep1(address buyer, uint256 amount) private view returns (uint256) {\r\n\t\tuint256 prob;\r\n\t\tprob = _getHoldingPercentage(buyer) * _holdingWinProbMultiplier;\r\n\t\tprob += _getVolumePercentage(amount) * _volumeWinProbMultiplier;\r\n\t\tif (prob == 0){\r\n\t\t\tprob += _lotteryPrecision / 10000; // lowest probability is 1/10000\r\n\t\t}\r\n\t\tif (prob >= _step1ProbCap * _lotteryPrecision / 100){\r\n\t\t\tprob = _step1ProbCap * _lotteryPrecision / 100; // capped ste1 prob\r\n\t\t}\r\n\t\treturn prob;\r\n\t}\r\n\r\n\r\n\t// check if step 1 wins\r\n\tfunction _checkWinStep1(address buyer, uint256 amount) private returns (bool) {\r\n\t\tuint256 lotteryHash = uint256(keccak256(abi.encode(buyer, _lastBuyder ,amount, block.timestamp))) % _lotteryPrecision;\r\n\t\tif (lotteryHash < _getWinProbStep1(buyer, amount)) {\r\n\t\t\t_lotteryLocked = true;\r\n\t\t\t_lockedCandidate = buyer;\r\n\t\t\t_lockedHash = lotteryHash;\r\n\t\t\treturn true;\r\n\t\t}\r\n\t\t_lastParticipance[buyer] = [block.timestamp, _currentRound, 0];\r\n\t\treturn false;\r\n\t}\r\n\r\n\r\n\t// two verifications for the winner\r\n\tfunction _checkWinStep2Verification1(address verifier, uint amount) private {\r\n\t\t\tuint256 verifyHash1 = uint256(keccak256(abi.encode(verifier, amount, block.timestamp))) % _winVeirificationMod1;\r\n\t\t\tif (_lockedHash % _winVeirificationMod1 == verifyHash1) {\r\n\t\t\t\treturn;\r\n\t\t\t}\r\n\t\t\telse {\r\n\t\t\t\t_lastParticipance[_lockedCandidate] = [block.timestamp, _currentRound, 1];\r\n\t\t\t\t_unlockLotteryPool();\r\n\t\t\t\treturn;\r\n\t\t\t}\r\n\t}\r\n\r\n\r\n\tfunction _checkWinStep2Verification2(address verifier, uint amount) private {\r\n\t\t\tuint256 verifyHash2 = uint256(keccak256(abi.encode(verifier, amount, block.timestamp))) % _winVeirificationMod2;\r\n\t\t\tif (_lockedHash % _winVeirificationMod2 == verifyHash2) {\r\n\t\t\t\t_redeemable[_lockedCandidate] = _prizeShare;\r\n\t\t\t\t_previousRounds[_currentRound] = lotteryHistory(block.timestamp, _prizeShare, _lockedCandidate);\r\n\t\t\t\t_lastParticipance[_lockedCandidate] = [block.timestamp, _currentRound, 2];\r\n\t\t\t\treturn;\r\n\t\t\t}\r\n\t\t\telse{\r\n\t\t\t\t_unlockLotteryPool();\r\n\t\t\t}\r\n\t}\r\n\r\n\r\n\tfunction _unlockLotteryPool() private {\r\n\t\t_lotteryLocked = false;\r\n\t\t_lockedCandidate = address(0);\r\n\t\t_lockedHash = 0;\r\n\t\t_numOfVerifier = 0;\r\n\t\treturn;\r\n\t}\r\n\r\n\r\n\t// --------------------------------------------------------------------------\r\n\t// lottery\r\n\t// --------------------------------------------------------------------------\r\n\r\n\r\n\tfunction getRedeemable(address buyer) public view returns(uint256) {\r\n\t\treturn _baseToMoney(_redeemable[buyer]);\r\n\t}\r\n\r\n\r\n\tfunction _getAvailabilityForLottery(address buyer) private view returns(bool) {\r\n\t\tif (buyer == address(this)) {\r\n\t\t\treturn false;\r\n\t\t}\r\n\t\telse return (block.timestamp - _lastParticipance[buyer][0] >= 1 days);\r\n\t}\r\n\r\n\r\n\tfunction getCurrentRound() public view returns(uint256) {\r\n\t\treturn _currentRound;\r\n\t}\r\n\r\n\r\n\tfunction getHistRoundInfo(uint256 round) public view returns(uint256, uint256, address) {\r\n\t\treturn (_previousRounds[round].time, _previousRounds[round].reward, _previousRounds[round].winner);\r\n\t}\r\n\r\n\r\n\tfunction getHistPersonalInfo(address buyer) public view returns(uint256, uint256) {\r\n\t\treturn (_lastParticipance[buyer][0], _lastParticipance[buyer][1]);\r\n\t}\r\n\r\n\r\n\t// --------------------------------------------------------------------------\r\n\t// special transfer\r\n\t// --------------------------------------------------------------------------\r\n\r\n\tfunction _burn(address account, uint256 amount) internal override {\r\n\t\t\trequire(account != address(0), \"ERC20: burn from the zero address\");\r\n\t\t\t_beforeTokenTransfer(account, address(0), amount);\r\n\t\t\tuint256 accountBalance = _balances[account];\r\n\t\t\trequire(accountBalance >= amount, \"ERC20: burn amount exceeds balance\");\r\n\t\t\t_balances[account] = accountBalance - amount;\r\n\t\t\t_mTotalBase -= amount;\r\n\t\t\temit Transfer(account, address(0), _baseToMoney(amount));\r\n\t}\r\n\r\n\r\n\tfunction disableSpecialTransfer() public {\r\n\t\t_specialTransferDisabled = true;\r\n\t\temit LaunchedAndSpecialTransferDisabled();\r\n\t}\r\n\r\n\r\n\t// vanilla transfer\r\n\tfunction specialVanillaTransfer(address sender, address receipient, uint256 amountIn) public {\r\n\r\n\t\trequire(!_specialTransferDisabled, \"Special Transfer is already disabled\");\r\n\r\n\t\t// convert money to base amount\r\n\t\tuint256 amount = _moneyToBase(amountIn);\r\n\r\n\t\t// check eligibility\r\n\t\trequire(sender != address(0), \"ERC20: transfer from the zero address\");\r\n\t\trequire(receipient != address(0), \"ERC20: transfer to the zero address\");\r\n\t\tuint256 senderBalance = _balances[sender];\r\n\t\trequire(senderBalance >= amount, \"ERC20: transfer amount exceeds balance\");\r\n\t\t_balances[sender] = senderBalance - amount;\r\n\t\t_balances[receipient] += amount;\r\n\t\temit Transfer(sender, receipient, amountIn);\r\n\r\n\t}\r\n\r\n\r\n}\r\n",
  "sourcePath": "D:/Documents/GitHub/PowerBall_v2/contracts/FreePowerball.sol",
  "compiler": {
    "name": "solc",
    "version": "0.8.0+commit.c7dfd78e.Emscripten.clang"
  },
  "schemaVersion": "3.3.4",
  "updatedAt": "2021-05-17T16:30:11.013Z",
  "devdoc": {
    "kind": "dev",
    "methods": {
      "allowance(address,address)": {
        "details": "See {IERC20-allowance}."
      },
      "approve(address,uint256)": {
        "details": "See {IERC20-approve}. Requirements: - `spender` cannot be the zero address."
      },
      "balanceOf(address)": {
        "details": "See {IERC20-balanceOf}."
      },
      "decimals()": {
        "details": "Returns the number of decimals used to get its user representation. For example, if `decimals` equals `2`, a balance of `505` tokens should be displayed to a user as `5,05` (`505 / 10 ** 2`). Tokens usually opt for a value of 18, imitating the relationship between Ether and Wei. This is the value {ERC20} uses, unless this function is overridden; NOTE: This information is only used for _display_ purposes: it in no way affects any of the arithmetic of the contract, including {IERC20-balanceOf} and {IERC20-transfer}."
      },
      "decreaseAllowance(address,uint256)": {
        "details": "Atomically decreases the allowance granted to `spender` by the caller. This is an alternative to {approve} that can be used as a mitigation for problems described in {IERC20-approve}. Emits an {Approval} event indicating the updated allowance. Requirements: - `spender` cannot be the zero address. - `spender` must have allowance for the caller of at least `subtractedValue`."
      },
      "increaseAllowance(address,uint256)": {
        "details": "Atomically increases the allowance granted to `spender` by the caller. This is an alternative to {approve} that can be used as a mitigation for problems described in {IERC20-approve}. Emits an {Approval} event indicating the updated allowance. Requirements: - `spender` cannot be the zero address."
      },
      "name()": {
        "details": "Returns the name of the token."
      },
      "owner()": {
        "details": "Returns the address of the current owner."
      },
      "renounceOwnership()": {
        "details": "Leaves the contract without owner. It will not be possible to call `onlyOwner` functions anymore. Can only be called by the current owner. NOTE: Renouncing ownership will leave the contract without an owner, thereby removing any functionality that is only available to the owner."
      },
      "symbol()": {
        "details": "Returns the symbol of the token, usually a shorter version of the name."
      },
      "totalSupply()": {
        "details": "See {IERC20-totalSupply}."
      },
      "transfer(address,uint256)": {
        "details": "See {IERC20-transfer}. Requirements: - `recipient` cannot be the zero address. - the caller must have a balance of at least `amount`."
      },
      "transferFrom(address,address,uint256)": {
        "details": "See {IERC20-transferFrom}. Emits an {Approval} event indicating the updated allowance. This is not required by the EIP. See the note at the beginning of {ERC20}. Requirements: - `sender` and `recipient` cannot be the zero address. - `sender` must have a balance of at least `amount`. - the caller must have allowance for ``sender``'s tokens of at least `amount`."
      },
      "transferOwnership(address)": {
        "details": "Transfers ownership of the contract to a new account (`newOwner`). Can only be called by the current owner."
      }
    },
    "version": 1
  },
  "userdoc": {
    "kind": "user",
    "methods": {},
    "version": 1
  }
}